:10000600464154333200256C7500485A4B31362030
:10001600202020202000554E494742202020202025
:1000260020004572726F72004D7573696320506CC3
:10003600617965720020004B487A002020004B62EF
:100046007073003A003000C9E8D6C300D2F4D0A7D6
:1000560000BBB7C8C6D2F400B5CDD2F4BCD3D6D84F
:1000660000B8DFD2F4BCD3C7BF00B2A5B7C5B7BDD1
:10007600CABD00B5A5C7FAB2A5B7C500B5A5C7FAEA
:10008600D1ADBBB700CBB3D0F2B2A5B7C500CBB3E9
:10009600D0F2D1ADBBB700C2BCD2F4BBFA00B1A35B
:1000A600B4E6CEC4BCFEC3FBCEAA3A005245434FCB
:1000B600524400D7EEB4F3C2BCD2F4CAB1BCE4CE0B
:1000C600AA3A002020CAB12020B7D62020C3EB00D0
:1000D600C2BCD2F4CAB1BCE4CCABB6CC2100CEC40F
:1000E600BCFED2D1B4E6D4DA2CCAC7B7F1B8B2B8DE
:1000F600C73F00D7BCB1B8BFD5BCE4D6D02E2E2E94
:1001060000BAC300B0B4C8CED2E2BCFCBFAACABC17
:1001160000C2BCD2F4D6D02E2E2E00B0B4C8CED299
:10012600E2BCFCCDA3D6B9C2BCD2F400C2BCD2F4A8
:10013600CDEAB3C9002E2E2E00534420457272001C
:1001460046617445727200487A6B45727200556E4C
:1001560069457272003F3F3F3F3F3F3F3F4D50333F
:10016600005B4F4B5D005344BFA8D6D0C3BBD3D072
:10017600D2F4C0D6CEC4BCFE21004E554C004D5024
:100186003300574D4100574156004D494400000089
:100196000000000000000000000000000000000059
:1001A6000000002000080028001000300018003869
:1001B6000020004000280050003000600038007029
:1001C60000400080005000A0006000C0007000E009
:1001D600008001000090014000A00000000053EFE5
:1001E6006E240000000053EF6E44000000004578C6
:1001F60069740000000000000000524946461C10C9
:10020600000057415645666D742014000000110029
:100216000100803E0000AE1F000000010400020045
:10022600F90166616374C80100005C1F00000000EC
:1002360000000000000000000000000000000000B8
:1002460000000000000000000000000000000000A8
:100256000000000000000000000000000000000098
:100266000000000000000000000000000000000088
:100276000000000000000000000000000000000078
:100286000000000000000000000000000000000068
:100296000000000000000000000000000000000058
:1002A6000000000000000000000000000000000048
:1002B6000000000000000000000000000000000038
:1002C6000000000000000000000000000000000028
:1002D6000000000000000000000000000000000018
:1002E6000000000000000000000000000000000008
:1002F60000000000000000000000000000000000F8
:1003060000000000000000000000000000000000E7
:1003160000000000000000000000000000000000D7
:1003260000000000000000000000000000000000C7
:1003360000000000000000000000000000000000B7
:1003460000000000000000000000000000000000A7
:100356000000000000000000000000000000000097
:100366000000000000000000000000000000000087
:100376000000000000000000000000000000000077
:100386000000000000000000000000000000000067
:100396000000000000000000000000000000000057
:1003A6000000000000000000000000000000000047
:1003B6000000000000000000000000000000000037
:1003C6000000000000000000000000000000000027
:1003D6000000000000000000000000000000000017
:1003E6000000000000000000000000000000000007
:1003F600000064617461E80F000007060606060641
:100406000606060606060606060606060606060686
:100416000606060706060606060606060606060675
:100426000606060606060606060606060606060666
:100436000606060606060606060606060606060656
:100446000606060606060606060606060606060646
:100456000606060606060606060606060606060636
:100466000606060606060606060606060606060626
:100476000606060606060606060606060606060616
:100486000606060606060606060606060606060606
:1004960006060606060606060606060606060606F6
:1004A60006060606060606060606060606060606E6
:1004B60006060606060606060606060606060606D6
:1004C60006060606060606060606060606060606C6
:1004D60006060606060606060606060606060606B6
:1004E60006060606060606060606070606060606A5
:1004F6000606060606060606060606060606060696
:100506000606060606060606060606060606060685
:100516000606060606060606060606060606060675
:100526000606060606060606060606060606060665
:100536000606060606060606060606060606060655
:100546000606060606060606060606060606060645
:100556000606060606060606060606060606060635
:100566000606060606060606060606060606060625
:100576000606060606060606060606060606060615
:100586000606060606060606060606060606060605
:1005960006060606060606060606060606060606F5
:1005A60006060606060606060606060606060606E5
:1005B60006060606060606060606060606060606D5
:1005C60006060606060606060606060606060606C5
:1005D60006060606060606060606060606060606B5
:1005E60006060606060606060606060606060606A5
:1005F6000606060606060606060606060606060695
:100606000606060606060606060606060606060684
:100616000606060606060606060606060606060674
:100626000606060606060606060606060606060664
:100636000606060606060606060606060606060654
:100646000606060606060606060606060606060644
:100656000606060606060606060606060606060634
:100666000606060606060606060606060606060624
:100676000606060606060606060606060606060614
:100686000606060606060606060606060606060604
:1006960006060606060606060606060606060606F4
:1006A60006060606060606060606060706060606E3
:1006B60006060606060606060606060606060606D4
:1006C60006060607060606060606060606060606C3
:1006D60006060606060606060606060606060606B4
:1006E60006060606060606060606060606060606A4
:1006F6000606060606060606060606060606060694
:100706000606060606060606060606060606060683
:100716000606060606060606070606060606060672
:100726000606060606060606060606060606060663
:100736000606060606060606060606060606060653
:100746000606060606060606060606060606060643
:100756000606060606060606060606060606060633
:100766000606060606060606060606060606060623
:100776000606060606060606060606060606060613
:100786000606060606060606060606060606060603
:1007960006060606060606060607060606060606F2
:1007A60006060606060606060A8050361300243E8E
:1007B600003801000016D7F40055C000000A17F4EF
:1007C6000057C000065017B08000243F00002420C8
:1007D60000000036F01801280031C0805C3E12B8D7
:1007E600173E1238153E05B8143615002400008051
:1007F6000A3E103801000600003E10B80300000350
:10080600033E1138053E11B8073E143812B884135A
:100816000C34104024411210D04010008C401000BF
:1008260024F400401230003840300938010000003E
:1008360041FE0200242900844048B2002436F30811
:100846004463068845AE3A8840BF8E8B41AC32A8D9
:1008560046FFC8ABC73E017800F4004480609000B4
:100866002460900024F400401530093446300937DE
:10087600C7300918003009384448B3E1E0488240DF
:1008860040FECA00245AC200245A5200244CC20018
:100896002448BA40404EEA48014ECA9800FF801BE1
:1008A600C1F1EBE3E2F1EA184C4C8BE5E448BE9863
:1008B60004488E41C6FE8200245A8E0024525E1BD6
:1008C600854FFE002448B641C64DD648C74DF600B2
:1008D60024F1D60024F1D600244EDA002400000FBD
:1008E600C3290084404E8200244084130C00060174
:1008F600003440402440100024F4004012320040EE
:1009060024B132002442140024F224002462300070
:10091600240001000128002B4900000024F40040B7
:10092600C232000024FF82002448B20024B1300005
:100936002462020024003FF00128002E510000101E
:1009460046FE64002448BE002428002F403A018059
:100956002432000024B0100024C02000243A0000F5
:100966002436F4181236F1980736F1180536F09841
:100976000336F018013405901436F3002436F218C5
:10098600152000000036F2981780C73E12B8173EB1
:100996001238153E05B814362500240000800A3E9C
:1009A6001078023E10F8043E1178103E14781300B9
:1009B6000600513E13F80E3E1340243009384030ED
:1009C600093852291964C0000606D031005BD200EE
:1009D6000655D130091800300904026126002400AA
:1009E6000600D128004D05B882002400060011300B
:1009F6000938500006001030093800291D5800003B
:100A060000180000060010B8820024291D5B0000B3
:100A16000017000000030139005BC0000655D13005
:100A2600091BD0300904040006005128003D003996
:100A360001002444480401419200246498240100E2
:100A46001F4001641200240006001128003C5100DA
:100A560000058E24004C0E00000013000600510015
:100A6600061A0331004024F21244C443460024F41B
:100A76000040D535008024612A0024000000242887
:100A8600004C5100000024361300243100380029A0
:100A96001D8000F2000024003FFEC2408244113156
:100AA600131BC0A12200240000200261242401009F
:100AB6000010022800460800000024003FF802311A
:100AC600004024B124002428004BC0390080246152
:100AD60024002400000802280048480000002400E2
:100AE6003FFE0231004024B124002428004BC039C7
:100AF600008024612400240000040228004A8800A3
:100B0600000024003FFF0231004024B124002428C5
:100B1600004BC03900802461240401003FFF822875
:100B2600004BC8B124002439008024B8828C4C388C
:100B3600304024000600913904D84C000600D1004C
:100B46000000133100904C42029BCC39F040243116
:100B56000040243C004024F40044C134F080246169
:100B6600260024000606D028005DD84294002424DE
:100B7600005D8200000024F400441131230024317A
:100B86000080244202002441822401000020022821
:100B9600005D89000000243013184C30F078526153
:100BA60024B8500006000128005588408844C242F7
:100BB6002400244122002441220024F4004051292B
:100BC600007440000056C8422400244122002441FB
:100BD600220024290069C0F40040510004000230BC
:100BE600091BD030231BD230E040246124002400AE
:100BF6000040022800598800000024000000013847
:100C060020402430E0402461240001003FFF4228B8
:100C1600005D88418200240000002428005D9500C4
:100C2600000024361300243E14C024290017003E79
:100C360014002436E3008C30E04024FE22441148A0
:100C4600B6048C3900802430330C4C000600116841
:100C56009204C2A122040261260024000600932801
:100C660000670100000024B882184C3413381200C3
:100C76000600D23A005BD233004024000000133C49
:100C8600004024F40044C134F0802461260024008E
:100C96000601112800671842940024240066C20049
:100CA6000000240003F00131010024B412002400E6
:100CB600280001280066C5614400240004000228BB
:100CC60000668144220024000010026422002428C9
:100CD6000066C0390040243900402431130C4C36DC
:100CE600F3402436F3D80E36F4581336F15810363E
:100CF600F0D80436F058023405901436F300243642
:100D0600F218152000000036F29817186800320015
:100D16004F007E00C8013D01F8032004F607E00CF1
:100D26008013D81F7F32004F5F61A80000000000CB
:100D3600000000000000000000000081A73E12B87D
:100D4600140000800A3E1038013E10B8033E1178A8
:100D5600063E11F8133E13F80E3E1340243E047867
:100D660010449A0040000100032800730440360333
:100D7600C10003FFC2B326002400180042432644E4
:100D860095402440D200000180A100409000100F41
:100D9600C242040024BC824091459A00240000000F
:100DA6005428007204BD864093240071C5FE015E7E
:100DB6000C5C435F2D5E46020C5C568A0C5E535EED
:100DC6000C5C435F2D5E46020C5C568A0C5E52003C
:100DD600244CB2440500180044654A0024280080CB
:100DE6000036F4581081D13E12B8140000800A3E35
:100DF6001038013E10B8033E1178063E11F8133E36
:100E060013F80E3E1340243E047810449A00400026
:100E160000080328007EC430F040240FFFFEC2A065
:100E26002000240FFFFF02A12200244036002400E8
:100E3600001FC2B3260024001040024326449540FA
:100E46002440D200000180A10040900010004242E0
:100E5600040024BC824091459A00240000005428D6
:100E6600007DC4BD86409324007D85FE015E0C5C3A
:100E7600435F2D5E4600245C5600245E535E0C5C88
:100E8600435F2D5E4600245C5600245E5200244CCF
:100E9600B2440500104004654A981000000144A5BC
:100EA6004A1BD1000600133301C444687E2005ADF9
:100EB6007684454ED6878436F364C2AC7287854EF7
:100EC600C2A443300924403009274136F3D80E36F0
:100ED600F1D81336F1580636F0980336F01801208B
:100EE60000000036F2981482114C820024000000A3
:100EF6002420000005F5C20024000009802000001F
:100F060000601000240050400000000095410000E1
:100F16000000FF4A00000000FF4900000000FF51EA
:100F260000000000FF5800000000FF510000000014
:100F3600FF000000000000000000000000000000AC
:100F4600000000183C3C3C18181800181800000057
:100F56000000636363220000000000000000000040
:100F66000000000036367F3636367F363600000003
:100F7600000C0C3E6361603E030343633E0C0C00B1
:100F86000000000000006163060C183363000000D7
:100F9600000000001C36361C3B6E66663B000000F7
:100FA600000030303060000000000000000000004B
:100FB6000000000C18183030303018180C000000F3
:100FC600000000180C0C060606060C0C18000000A3
:100FD600000000000042663CFF3C66420000000044
:100FE6000000000000181818FF181818000000006C
:100FF6000000000000000000000000181818300073
:101006000000000000000000FF00000000000000DB
:10101600000000000000000000000018180000009A
:101026000000000103070E1C3870E0C080000000BD
:101036000000003E6363636B6B6363633E00000006
:101046000000000C1C3C0C0C0C0C0C0C3F000000AF
:101056000000003E6303060C183061637F00000049
:101066000000003E6303031E030303633E0000000B
:10107600000000060E1E3666667F06060F0000009C
:101086000000007F6060607E030363733E00000023
:101096000000001C3060607E636363633E000000F6
:1010A6000000007F630306060C0C181818000000E9
:1010B6000000003E6363633E636363633E000000BB
:1010C6000000003E636363633F0303063C000000C9
:1010D60000000000000018180000001818000000AA
:1010E6000000000000001818000000181818300052
:1010F60000000000060C18306030180C06000000D6
:10110600000000000000007E00007E0000000000DD
:10111600000000006030180C060C1830600000005B
:101126000000003E6363060C0C0C000C0C00000073
:101136000000003E63636F6B6B6E60603E000000F4
:10114600000000081C366363637F6363630000006E
:101156000000007E3333333E333333337E000000EA
:101166000000001E33616060606061331E00000095
:101176000000007C36333333333333367C000000D3
:101186000000007F3331343C343031337F000000BF
:101196000000007F3331343C3430303078000000BA
:1011A6000000001E336160606F6363371D0000003E
:1011B600000000636363637F63636363630000002F
:1011C6000000003C18181818181818183C000000E1
:1011D6000000000F06060606060666663C000000CE
:1011E600000000733336363C363633337300000066
:1011F6000000007830303030303031337F0000006E
:1012060000000063777F6B636363636363000000C2
:101216000000006363737B7F6F6763636300000096
:101226000000001C36636363636363361C000000C2
:101236000000007E3333333E30303030780000001B
:101246000000003E6363636363636B6F3E060700E3
:101256000000007E3333333E3636333373000000EE
:101266000000003E6363301C060363633E0000001B
:10127600000000FFDB991818181818183C00000029
:101286000000006363636363636363633E0000009F
:1012960000000063636363636363361C0800000039
:1012A60000000063636363636B6B7F363600000088
:1012B600000000C3C3663C18183C66C3C3000000A8
:1012C600000000C3C3C3663C181818183C00000091
:1012D6000000007F6343060C183061637F00000046
:1012E6000000003C30303030303030303C00000000
:1012F60000000080C0E070381C0E070301000000EB
:101306000000003C0C0C0C0C0C0C0C0C3C000000FF
:1013160000081C366300000000000000000000000A
:1013260000000000000000000000000000FF0000B8
:101336000018180C0000000000000000000000006B
:101346000000000000003C46063E66663B000000CA
:101356000000007030303C36333333336E0000000B
:101366000000000000003E63606060633E00000015
:101376000000000E06061E36666666663B00000026
:101386000000000000003E63637E60633E000000D4
:101396000000001C3632307C3030303078000000DF
:1013A6000000000000003B666666663E06663C007E
:1013B600000000703030363B3333333373000000A7
:1013C6000000000C0C001C0C0C0C0C0C1E00000089
:1013D6000000000606000E060606060666663C00C7
:1013E6000000007030303333363C36337300000073
:1013F6000000001C0C0C0C0C0C0C0C0C1E0000004D
:101406000000000000006E7F6B6B6B6B6B000000D2
:101416000000000000006E33333333333300000026
:101426000000000000003E63636363633E0000004B
:101436000000000000006E333333333E3030780056
:101446000000000000003B666666663E06060F006A
:101456000000000000006E3B3330303078000000A2
:101466000000000000003E63380E03633E000000EB
:101476000000000818187E181818181B0E00000027
:101486000000000000006666666666663B000000B7
:10149600000000000000636336361C1C08000000D4
:1014A6000000000000006363636B6B7F3600000082
:1014B60000000000000063361C1C1C3663000000A0
:1014C60000000000000063636363633F03063C00A3
:1014D6000000000000007F660C1830637F000000EB
:1014E6000000000E18181870181818180E000000C2
:1014F60000000018181818180018181818180000F6
:10150600000000701818180E18181818700000003F
:101516000000003B6E00000000000000000000001C
:10152600000070D8D8700000000000000000000025
:1015360000000000000000000000000000000000A5
:10154600000000183C3C3C18181800181800000051
:10155600000063636322000000000000000000003A
:101566000000000036367F3636367F3636000000FD
:10157600000C0C3E6361603E030343633E0C0C00AB
:101586000000000000006163060C183363000000D1
:10159600000000001C36361C3B6E66663B000000F1
:1015A6000000303030600000000000000000000045
:1015B6000000000C18183030303018180C000000ED
:1015C600000000180C0C060606060C0C180000009D
:1015D600000000000042663CFF3C6642000000003E
:1015E6000000000000181818FF1818180000000066
:1015F600000000000000000000000018181830006D
:101606000000000000000000FF00000000000000D5
:101616000000000000000000000000181800000094
:101626000000000103070E1C3870E0C080000000B7
:101636000000003E6363636B6B6363633E00000000
:101646000000000C1C3C0C0C0C0C0C0C3F000000A9
:101656000000003E6303060C183061637F00000043
:101666000000003E6303031E030303633E00000005
:10167600000000060E1E3666667F06060F00000096
:101686000000007F6060607E030363733E0000001D
:101696000000001C3060607E636363633E000000F0
:1016A6000000007F630306060C0C181818000000E3
:1016B6000000003E6363633E636363633E000000B5
:1016C6000000003E636363633F0303063C000000C3
:1016D60000000000000018180000001818000000A4
:1016E600000000000000181800000018181830004C
:1016F60000000000060C18306030180C06000000D0
:10170600000000000000007E00007E0000000000D7
:10171600000000006030180C060C18306000000055
:101726000000003E6363060C0C0C000C0C0000006D
:101736000000003E63636F6B6B6E60603E000000EE
:10174600000000081C366363637F63636300000068
:101756000000007E3333333E333333337E000000E4
:101766000000001E33616060606061331E0000008F
:101776000000007C36333333333333367C000000CD
:101786000000007F3331343C343031337F000000B9
:101796000000007F3331343C3430303078000000B4
:1017A6000000001E336160606F6363371D00000038
:1017B600000000636363637F636363636300000029
:1017C6000000003C18181818181818183C000000DB
:1017D6000000000F06060606060666663C000000C8
:1017E600000000733336363C363633337300000060
:1017F6000000007830303030303031337F00000068
:1018060000000063777F6B636363636363000000BC
:101816000000006363737B7F6F6763636300000090
:101826000000001C36636363636363361C000000BC
:101836000000007E3333333E303030307800000015
:101846000000003E6363636363636B6F3E060700DD
:101856000000007E3333333E3636333373000000E8
:101866000000003E6363301C060363633E00000015
:10187600000000FFDB991818181818183C00000023
:101886000000006363636363636363633E00000099
:1018960000000063636363636363361C0800000033
:1018A60000000063636363636B6B7F363600000082
:1018B600000000C3C3663C18183C66C3C3000000A2
:1018C600000000C3C3C3663C181818183C0000008B
:1018D6000000007F6343060C183061637F00000040
:1018E6000000003C30303030303030303C000000FA
:1018F60000000080C0E070381C0E070301000000E5
:101906000000003C0C0C0C0C0C0C0C0C3C000000F9
:1019160000081C3663000000000000000000000004
:1019260000000000000000000000000000FF0000B2
:101936000018180C00000000000000000000000065
:101946000000000000003C46063E66663B000000C4
:101956000000007030303C36333333336E00000005
:101966000000000000003E63606060633E0000000F
:101976000000000E06061E36666666663B00000020
:101986000000000000003E63637E60633E000000CE
:101996000000001C3632307C3030303078000000D9
:1019A6000000000000003B666666663E06663C0078
:1019B600000000703030363B3333333373000000A1
:1019C6000000000C0C001C0C0C0C0C0C1E00000083
:1019D6000000000606000E060606060666663C00C1
:1019E6000000007030303333363C3633730000006D
:1019F6000000001C0C0C0C0C0C0C0C0C1E00000047
:101A06000000000000006E7F6B6B6B6B6B000000CC
:101A16000000000000006E33333333333300000020
:101A26000000000000003E63636363633E00000045
:101A36000000000000006E333333333E3030780050
:101A46000000000000003B666666663E06060F0064
:101A56000000000000006E3B33303030780000009C
:101A66000000000000003E63380E03633E000000E5
:101A76000000000818187E181818181B0E00000021
:101A86000000000000006666666666663B000000B1
:101A9600000000000000636336361C1C08000000CE
:101AA6000000000000006363636B6B7F360000007C
:101AB60000000000000063361C1C1C36630000009A
:101AC60000000000000063636363633F03063C009D
:101AD6000000000000007F660C1830637F000000E5
:101AE6000000000E18181870181818180E000000BC
:101AF60000000018181818180018181818180000F0
:101B0600000000701818180E181818187000000039
:101B16000000003B6E000000000000000000000016
:101B2600000070D8D870000000000000000000001F
:101B360000000000003FFC200420042004200420B4
:101B460004200420042004200420043FFC0000009C
:101B560000FDFBF7E0D0B070FEFDFBF7EFDFBF7FC7
:101B6600020001103FF8082004200444FFFE000094
:101B76001FF0101010101FF0101010101FF0101092
:101B86001088110827D27A7C13C82A547A7C0BC491
:101B96000100FFFE054009201110210EC1040100BD
:101BA600203823C020442248F95027FE21502A48D5
:101BB6003446E3F82248224823F82248A24843F84C
:101BC6002040104010400084FCFE210822883C88FA
:101BD600245024502420245044505488890E020452
:101BE6003EF82288228822883EF801200110FFFE56
:101BF60002800C603018FEFE2288228822883EF879
:101C060020001000100405FEFC440844104434442F
:101C16005844984414441084108411041228141053
:101C26001040104010401080FC88250427FE240236
:101C3600240049FC290411042904450485FC0104F7
:101C46000880088008801088109830A050C09080C6
:101C5600118012801480108010821082107E100075
:101C6600000000000000000000000000000000006E
:101C7600000000000000000000000000000000005E
:101C8600000000000000000000000000000000004E
:101C9600000000000000000000000000000000003E
:101CA600000000000000000000000000000000002E
:101CB600000000000000000000000000000000001E
:101CC600000000000000000000000000000000000E
:101CD6001800000000000000000000000000000CDA
:101CE60000000000000000000000000000000800E6
:101CF6000040000000000000000000000009C001D4
:101D0600C0000000000000000000000007F0038093
:101D160000000000000000000000000C100380001E
:101D2600000000000000000000004C00FF800000E2
:101D3600000000000000000001B9007F80000000E4
:101D4600000000000000000119801D800000000056
:101D56000000000000000118F80C00000000000060
:101D660000000000000198F00000000000000000E4
:101D760000000000000F60000000000000000000EE
:101D860000000000C9040020000000000000000060
:101D96000000008B0007FFE00000000000000000CC
:101DA600000102001FC0FC0000000000000000004F
:101DB600010007FFFF9F0000000000000000000078
:101DC60000C7FFFFFDC000000000000000000097F4
:101DD6006FFFFFFF700000000000000000009C3F46
:101DE600FF00FFB80000000000000000007C3FF884
:101DF600001FFC000000000000000001333FFC0053
:101E060003FE00000000000000000331BFFC0001DB
:101E1600FF00000000000000000611FFF800007F30
:101E260086000000000000000000FFF000003F8078
:101E3600000000000000000098FFF000001FC080B6
:101E46000000000000000018FF8000000FC0000026
:101E5600000000000000F97000000007E400000028
:101E66000000000000627000000003E2C0000000F5
:101E760000000000C27000000001E2000000000047
:101E8600000000666000000001E60000000000009F
:101E960000002F6000000000F400000000000000B9
:101EA6000000E000000000F48000000000000000D8
:101EB60014E000000000F400000000000000001F15
:101EC600E000000000FE00000000000000001FE02F
:101ED60000000000F8000000000000000017E0000D
:101EE600000000F8000000000000000003FC0000F5
:101EF6000000F0000000000000000003FE000000EB
:101F060000F000000000000000019FFF000000003C
:101F1600E000000000000000011FFF00000001E0DB
:101F2600000000000000000027FF00000001C18043
:101F3600000000000000007FFF80000003B30000E7
:101F46000000000000031FFF800000078000000063
:101F560000000000060FFF80000007900000000050
:101F6600000000064FFF8000010F76000000000011
:101F76000000060FFFC000079E6000000000000082
:101F860000001FFFC0001FFF8800000000000000C7
:101F9600001FFFC0007FFC8E0000000000000F0045
:101FA6003FFFE001FFF00600000000000018C03F00
:101FB600FFE003FFFF030000000000003043F7FFCF
:101FC600E00FFFFF8600000000000030C3F7FFE0CF
:101FD6003FFFFF8200000000000030C3FFFFE07FEC
:101FE600FFFF800000000000001803FFFFF0FFFF66
:101FF600FF00000000000001020E31FFF1FFFFF8B4
:102006000000000000000207FA01FFE3E7FFF80006
:102016000000000000024B2240FD81EFFFF80000A7
:102026000000000003C422407841FFFFD8000000F2
:10203600000000008000203060FFFF9000000000DC
:1020460000000000000000703FFF080000000000D4
:1020560039000783E0007FBFFE080000000000672C
:1020660081A8C630007FBFF8080000000000C081CC
:10207600304C00006F1FF808000000000040C1202F
:10208600480000081FF808000000000070422018F1
:102096000000000FF80800000000001C6220380055
:1020A60000000FF0000000000000022420180000CD
:1020B600000FE000000000000001342008000000CE
:1020C6000FD8000000000000811C20280000000B33
:1020D60080000000000000431820661800000880F9
:1020E6000000000000003E1BE3E3E10F03C8F00020
:1020F60000000000000014661901508C29980000A9
:1021060000000000001408090160D81980000000D2
:10211600000000002408050140500980000000006E
:1021260000000027180501405008C000000000000C
:10213600000060D005014050083800000000000093
:1021460000003805014050080C00000000000000A7
:1021560000180503405008040000000000000008B5
:102166002C098340481A04000000000000000466A1
:1021760010C5404C29080000000000000003C1E023
:10218600794043C8F0000000000000000000000095
:102196000000000000000000000000000000000039
:1021A6000000000000000000000000000000000029
:1021B6000000000000000000000000000000000019
:1021C6000000000000000000000000000000000009
:1021D60000000000000000000000000000000000F9
:1021E60000000000000000000000066006600660B7
:1021F60006600660066006600660000000000000DB
:10220600000000000000040006000700078007C069
:1022160007E007C007800700060004000000000072
:102226000000000000000000200000000004200064
:102236000100000420000300000420000100000447
:10224600200001000004200001000004200001001D
:1022560000042000000000842000000000C427FFC6
:10226600FFFFFFE42000000000C4200000000084FF
:102276002000000000042000000000040000000010
:102286000000000000000000200000800004200084
:10229600018000042000008000042000008000046B
:1022A60020000080000421000080000423000000BC
:1022B600000427FFFFFFFFC42300000000042100E5
:1022C600000000842000000000C427FFFFFFFFE499
:1022D6002000000000C42000000000840000000070
:1022E60000000000000000002000000000042000A4
:1022F60000000004200005800004200006400004C1
:102306002000044000042000044000042000044093
:1023160000042000044000842000000000C427FFC1
:10232600FFFFFFE42000000000C42000000000843E
:10233600200000000004200000000004000000004F
:1023460000000000000000002000058000042000BE
:10235600064000042000044000042000044000045D
:102366002000044000042100044000042300000073
:10237600000427FFFFFFFFE4230000000004210004
:10238600000000842000000000C427FFFFFFFFE4D8
:102396002000000000C420000000008400000000AF
:1023A6000000000000000180038007801F801F9C42
:1023B6001FA21FD11FC907C503A2019C0000000070
:1023C6000000000000000180038007881FA81FA8E6
:1023D6001FA81FA81FA8078803800180000000000F
:1023E60000000000000003C00420081010081008B8
:1023F60014281E782A542A542A541E7804200000D1
:10240600000000000000000000000FF008100FF0B0
:10241600181820043FFC000010080FF00000000010
:10242600000000000000000011080910091000005B
:102436003FFC200418180FF008100FF000000000F1
:10244600000000000000018007E00E7018181998BF
:1024560033CC33CC199818180E7007E001800000B1
:10246600000000000000018007E00E701818181820
:10247600300C300C181818180E7007E00180000098
:1024860000000000000000001FF81FF818181BD8F5
:102496001BD81BD81BD818181FF81FF800000000FF
:1024A60000000000000000001FF81FF81818181898
:1024B60018181818181818181FF81FF80000000028
:1024C600000000506E8CA0B4BEC8CDD2D7DCE1E6C9
:1024D600EBEEF1F5F8FBFE203040607080904C206A
:1024E60010403040504063633B3B000001005245C2
:0924F600434F524420204D5033A5
:1091EF00420243FFFF42024D000041024C0041008A
:1091FF003F004100418041024FA041024500410222
:10920F00460041004201440269000000004402553B
:10921F000000000044026D000000005C000100002F
:10922F00000000000000000000000000000000002F
:10923F00000000000000000000005C001D000000A6
:10924F00000000000000000000000000000000000F
:10925F00000000000000000000430039010001433E
:05926F00003C01001DA0
:04A1BE007F327E006E
:10A1C200EF1FAA0670011E4A600F7C017D53ED4C01
:09A1D20060EEED1D70F81C80F533
:01A1DB002261
:10A23100EF1FAA0670011E4A600F7C0D7D77ED4C61
:09A2410060EEED1D70F81C80F5C3
:01A24A0022F1
:0FA2DC00D2A4D2B4D2B7D2B6D2B5D286D287220C
:10A2CB007E08C2B5EF339287D2B5EF25E0FFDEF201
:01A2DB002260
:10A27B00D2867E08EF25E0FFC2B5A286E4334FFFFE
:04A28B00D2B5DEF07A
:01A28F0022AC
:06A15A007D047C08E4FF17
:10A16000AB0730B4FDC2B67F0212A2CBAF0312A27E
:0EA17000CBECFF12A2CBAF0512A2CBD2B622CF
:02A17E00AD072B
:10A1800030B4FDC2B67F0312A2CBAF0512A2CB1230
:0DA19000A27BEF7D00FC12A27BD2B6AE04D4
:01A19D00229F
:04A0E8007BFF7C007E
:10A0EC00C2B7ED1DAE0470011C4E601330B4FD12EE
:10A0FC002B04FF12A2CB740129F9E43AFA80E3D2C3
:02A10C00B72278
:07A01600E4FBFA7D037F0467
:10A01D00EF5407FFED5403FDEA5403FA7E00EF7889
:10A02D0002C333CE33CED8F9FFEF4D33333354F86B
:04A03D004AFEEBFFED
:01A0410022FC
:10A1F9009003167480F0900316E0FF14F0EF600BE3
:0BA209007A0179947D1012A0E880EB30
:01A214002227
:10A1DC00EF75F0FF84C374FE95F0FFED75F0FF840E
:0DA1EC00C374FE95F0FDEFFC7F0B02A16037
:10A04200E4FF12A17E7C00300A047D0180027D00C3
:10A05200EC5EFCED5F4C7013EF54FEFFA20AE4339A
:0BA06200FDEF4DFDAC06E4FF12A16015
:01A06D0022D0
:10A09900E4FAEF540FC454F0FFED540FFD4FFB7F6A
:10A0A9000212A17EEF6B7001E4600CEA4EFAEBFD3F
:07A0B900AC027F0212A1605E
:01A0C000227D
:10A06E00E4FBEF540FC454F0FFED540FFD4FFFEF20
:10A07E00FA7F0212A17EE47002EE6A600DEB4FFBD6
:0AA08E00AE02FDAC067F0212A160D5
:01A0980022A5
:10A24B00E4FF12A17EEF3009054410FF800354EFA9
:0AA25B00FFAD07AC06E4FF02A160AE
:109FE6007F0912A17EEF54E08EF0122F9EA00D4D38
:109FF60040A00A5740A0077660A010FFE00000A02E
:0FA00600137F01227F02227F03227F04227F002B
:01A015002228
:108F2400129FE6EF24FC603324026003028FB67FB5
:108F34000812A17EEF7803C333CE33CED8F9FDAC4B
:108F440006E412269CE4FBFA797A78441225FAE4C2
:108F5400FBFAF9783F1225060226D57F0912A17E75
:108F64007E00EF54187803CEC313CE13D8F99003C0
:108F740016F0D3940240047F0080027F0190031610
:108F8400EFF07F0812A17EEEC4540F25E025E02403
:108F9400A4F582E43401F583C083C082900316E013
:108FA400D082D08375F002122F4CE493FE740193A7
:058FB400FF22E4FEFFB6
:018FB9002295
:109B310012A2DCC2A47F647E0012A1C2D2A47D2045
:109B410012A15C7A0179E47D0812A0E87F2C7E01E4
:109B510012A1C27A0179F47D087C0012A0EC7F2C5D
:109B61007E0112A1C27A0179EC7D087C0012A0EC81
:109B71007F2C7E0112A1C27A0179F47D087C00025A
:029B8100A0EC56
:0DA2EB0012A1F912A15A7F057E0002A1C246
:109ED90012A2DCC2A47F647E0012A1C2D2A47D00BA
:109EE90012A15C12A016AC06AD077F0312A160E4B3
:109EF900FF12A17EE4B507DBEEB408D77BFF7A0138
:099F090079FC7D047C0002A0EC4F
:109C7200901804300A06E5834440F583300B06E56C
:109C8200834420F583E4FBFA7D037F0212A01DAC1E
:109C920006AD077F0312A1607D067C007F0C12A136
:109CA20060E4FD7F0D12A160AE83AF82AD07AC060A
:0C9CB200E4FF12A1607F0A7E0002A1C244
:10A2650012A15A7F057E0012A1C212A016AC06AD3E
:06A27500077F0302A16057
:0B927500900354EBF0A3EAF0A3E9F033
:109280007F0912A17E900357EEF0A3EFF0C3948004
:10929000EE940040EBE09480900357E0940350E09C
:1092A000E4900359F0A3F0C3900359E094015049AE
:1092B0007F0812A17E900357EEF0A3EFF0900357C2
:1092C000E0FF900354E0FBA3E0FAA3E0F990035918
:1092D000E475F001122BFB85F082F583EF122B5C15
:1092E000900357A3E0FFA3E475F001122BFB85F078
:0992F00082F583EF122B5C80AEC5
:0192F9002252
:1099DB00E4900316F0A3F0900316E0FCA3E0FD2443
:1099EB0000F58274043CF583E493FFC007ED25E09A
:1099FB00FFEC33FE74AF2FF58274073EF583E493CF
:109A0B00FC740193FDD00712A160900317E004F0E2
:109A1B007006900316E004F0C3900317E094AF9028
:079A2B000316E0940340B0B4
:019A32002211
:0B9D4E00900320EBF0A3EAF0A3E9F083
:109D59007D047C187F0712A160E4A3F07F0612A19D
:109D69007E900320E0FBA3E0FAA3E0F9A3E075F0FD
:109D790002A4F58285F083EE8FF0122C499003231B
:099D8900E004F0E0C3940E40D3A5
:019D920022AE
:09A2F800D2A0C2A1D2A2D2A3227D
:0A9C2500129D93129D93D2A07FFFC1
:109C2F008F20C2A1A20792A3D2A1C2A1A20692A382
:109C3F00D2A1C2A1A20592A3D2A1C2A1A20492A3B2
:109C4F00D2A1C2A1A20392A3D2A1C2A1A20292A3A6
:109C5F00D2A1C2A1A20192A3D2A1C2A1A20092A39A
:039C6F00D2A1225D
:1084A5008F20C2A1A20792A37F327E00EF1F700129
:1084B5001EEF4E70F7D2A17E007F32EF1F70011EB6
:1084C500EF4E70F7C2A1A20692A37E007F32EF1F86
:1084D50070011EEF4E70F7D2A17E007F32EF1F7044
:1084E500011EEF4E70F7C2A1A20592A37E007F3256
:1084F500EF1F70011EEF4E70F7D2A17E007F32EFA5
:108505001F70011EEF4E70F7C2A1A20492A37E0058
:108515007F32EF1F70011EEF4E70F7D2A17E007FF4
:1085250032EF1F70011EEF4E70F7C2A1A20392A396
:108535007E007F32EF1F70011EEF4E70F7D2A17ED5
:10854500007F32EF1F70011EEF4E70F7C2A1A2022D
:1085550092A37E007F32EF1F70011EEF4E70F7D29F
:10856500A17E007F32EF1F70011EEF4E70F7C2A192
:10857500A20192A37E007F32EF1F70011EEF4E70A5
:10858500F7D2A17E007F32EF1F70011EEF4E70F70C
:10859500C2A1A20092A37E007F32EF1F70011EEFE1
:1085A5004E70F7D2A17E007F32EF1F70011EEF4E95
:0285B50070F75D
:0185B70022A1
:109D9300D2A2C2A1A2A29207D2A1C2A1A2A292065A
:109DA300D2A1C2A1A2A29205D2A1C2A1A2A292044F
:109DB300D2A1C2A1A2A29203D2A1C2A1A2A2920243
:109DC300D2A1C2A1A2A29201D2A1C2A1A2A2920037
:059DD300D2A1AF202227
:10839000D2A2C2A1A2A292077F327E00EF1F70017B
:1083A0001EEF4E70F7D2A17E007F32EF1F70011ECC
:1083B000EF4E70F7C2A1A2A292067E007F32EF1F9D
:1083C00070011EEF4E70F7D2A17E007F32EF1F705A
:1083D000011EEF4E70F7C2A1A2A292057E007F326D
:1083E000EF1F70011EEF4E70F7D2A17E007F32EFBB
:1083F0001F70011EEF4E70F7C2A1A2A292047E0070
:108400007F32EF1F70011EEF4E70F7D2A17E007F0A
:1084100032EF1F70011EEF4E70F7C2A1A2A29203AD
:108420007E007F32EF1F70011EEF4E70F7D2A17EEB
:10843000007F32EF1F70011EEF4E70F7C2A1A2A2A3
:1084400092027E007F32EF1F70011EEF4E70F7D256
:10845000A17E007F32EF1F70011EEF4E70F7C2A1A8
:10846000A2A292017E007F32EF1F70011EEF4E70BC
:10847000F7D2A17E007F32EF1F70011EEF4E70F722
:10848000C2A1A2A292007E007F32EF1F70011EEFF8
:108490004E70F7D2A17E007F32EF1F70011EEF4EAB
:0484A00070F7AF20A2
:0184A40022B5
:0B9A890090039CEBF0A3EAF0A3E9F0CF
:109A9400E4FDFC90039CE0FBA3E0FAA3E0F98D82D3
:109AA4008C83122B1DFF129C2F0DBD00010CED6445
:109AB400064C70DF7C007D1E129D9390039FEFF097
:109AC400BFFF09ED1D70011CED4C70ECED4C7003F3
:089AD4007FFF2290039FE0FFD9
:019ADC002267
:0B9ADD0090031AEBF0A3EAF0A3E9F0FD
:109AE800E4FDFC90031AE0FBA3E0FAA3E0F98D8201
:109AF8008C83122B1DFF1284A50DBD00010CED6493
:109B0800064C70DF7C007D1E12839090031DEFF0E1
:109B1800BFFF09ED1D70011CED4C70ECED4C70039E
:089B28007FFF2290031DE0FF06
:019B30002212
:1095650012A2F8900318E4F0A3740FF07FFF1284A1
:10957500A5900319E024FFF0900318E034FFF0D321
:10958500A3E09400900318E0940050E0C2A090037B
:1095950018E4F0A374C8F07BFF7A0F790D129ADDF9
:1095A500EF6401601B900319E024FFF0900318E0BD
:1095B50034FFF0D3A3E09400900318E0940050D753
:1095C500D2A07FFF1284A5900318E07002A3E0707B
:0495D50002D322C3D8
:0195D900226F
:109B83001295655001227FFF1284A5C2A09003168F
:109B9300E4F0A374C8F07BFF7A0F7913129ADDEF18
:109BA300601B900317E024FFF0900316E034FFF0EE
:109BB300D3A3E09400900316E0940050D9D2A07F81
:109BC300FF1284A5900316E07002A3E07002D32273
:019BD300C3CE
:019BD400226E
:0B972C009003CFEBF0A3EAF0A3E9F0FC
:109737007FFF129C2FC2A07BFF7A0F7919129A899B
:10974700EF600280197D647C00129D93EF64FE60D8
:1097570009ED1D70011CED4C70EFED4C7005129C6E
:109767002BD322E4FCFD129D939003CFE0FBA3E0F3
:10977700FAA3E0F98D828C83EF122B5C0DBD0001FB
:0B9787000CED64104C70DF129C25C339
:0197920022B4
:0B9793009003D2EBF0A3EAF0A3E9F092
:10979E007FFF129C2FC2A07BFF7A0F791F129A892E
:1097AE00EF600280197D647C00129D93EF64FE6071
:1097BE0009ED1D70011CED4C70EFED4C7005129C07
:1097CE002BD322E4FCFD129D939003D2E0FBA3E089
:1097DE00FAA3E0F98D828C83EF122B5C0DBD000194
:0B97EE000CED64104C70DF129C25C3D2
:0197F900224D
:0B86CB009003A0EBF0A3EAF0A3E9F09D
:1086D6007B017A0379A312972C5001229003ACE018
:1086E600FCA3E0FDA3E0FEA3E0FF9003A0E0FBA354
:1086F600E0FAA3E0F9122E287B017A0379A31297F8
:10870600935001229003A8E0540FFBA3E0540325E5
:10871600E025E07D00FCA3E075F004A42DFDE5F066
:108726003CFCA3E054C0C4131354032DFDE43CFCED
:10873600A3E0540325E09003B3F09003ADE054802A
:10874600C41313135401FF9003B3E02FF0AF037467
:10875600017E00A807088005C333CE33CED8F9FFC3
:108766009003A0E0FBA3E0FAA3E0F9900004EE8FEB
:10877600F0122C49ED2401FFE43CFEE4FCFDC004AC
:10878600C005C006C0079003B3E02402FF74017E53
:1087960000A807088005C333CE33CED8F9FFEE33E1
:1087A60095E0FDFCD003D002D001D000122C7690CB
:1087B60003A0E0FBA3E0FAA3E0F9900006122E4224
:0187C600C3EF
:0187C700228F
:10827800FBAA06E4F9F890037FE0FCA3E0FDA3E085
:10828800FEA3E0FF122D0190038AE0F8A3E0F9A312
:10829800E0FAA3E02FFFEA3EFEE93DFDE83CFC7B67
:0582A800017A0079439A
:1082AD0090038F122EEB900393EBF0A3EAF0A3E96A
:0182BD00F0D0
:1082BE0078967C037D017BFF7A0F79257E007F0601
:1082CE00122ADE90038FE0FCA3E0FDA3E0FEA3E004
:1082DE00FF7809122DC590038F122EEB90038FE0BD
:1082EE00FCA3A3A3E4FFFEFDEC7818122DB29003BD
:1082FE0097EFF090038FA3E0FDA3A3E4FFFEE4FC51
:10830E007810122DB2900398EFF090038FA3A3E094
:10831E00FEA3E4FFE4FDFC7808122DB2900399EF62
:10832E00F07FFF129C2FC2A07B017A037996129ADE
:10833E0089EF6005129D9380197D647C00129D93D8
:10834E00EF64FE6009ED1D70011CED4C70EFED4CFD
:10835E007005129C2BD322E4FCFD129D9390039387
:10836E00E0FBA3E0FAA3E0F98D828C83EF122B5C85
:10837E000DBD00010CE4B505E1ECB402DD129C2547
:01838E00C32B
:01838F0022CB
:10815C00EB2FFFEA3EFEE93DFDE83CFC7B017A009B
:02816C00794355
:10816E00900384122EEB900388EBF0A3EAF0A3E9C0
:01817E00F010
:10817F00788B7C037D017BFF7A0F792B7E007F0646
:10818F00122ADE900384E0FCA3E0FDA3E0FEA3E04F
:10819F00FF7809122DC5900384122EEB900384E013
:1081AF00FCA3A3A3E4FFFEFDEC7818122DB29003FD
:1081BF008CEFF0900384A3E0FDA3A3E4FFFEE4FCA7
:1081CF007810122DB290038DEFF0900384A3A3E0EB
:1081DF00FEA3E4FFE4FDFC7808122DB290038EEFAE
:1081EF00F07FFF129C2FC2A07B017A03798B129A2A
:1081FF0089EF600280697D647C007FFF129C2FED08
:10820F001D70011CED4C70F27FFE129C2FE4FCFDE3
:10821F00900388E0FBA3E0FAA3E0F98D828C831230
:10822F002B1DFF129C2F0DBD00010CE4B505E1ECD9
:10823F00B402DD7FFF129C2F129C2F129D93EF54DF
:10824F001F6405701A7C277D10129D93EFF460094F
:10825F00ED1D70011CED4C70F0ED4C70078000129D
:08826F009C2BD322129C2BC3AF
:0182770022E4
:10797A0090037F122EEB900383EBF0A3EAF0A3E9C6
:01798A00F00C
:10798B00788A7C037D017BFF7A0F79317E007F063D
:10799B00122ADED3900387E09400900386E09402D2
:1079AB0040067402F0A3E4F0900388E0FEA3E0FF2E
:1079BB00900386E0FCA3E0FD2FFFEC3EFED3EF949B
:1079CB0000EE9402400DE49D900389F074029C90AC
:1079DB000388F090037FE0FCA3E0FDA3E0FEA3E0AF
:1079EB00FF7809122DC590037F122EEB90037FE0D9
:1079FB00FCA3A3A3E4FFFEFDEC7818122DB29003B9
:107A0B008BEFF090037FA3E0FDA3A3E4FFFEE4FC68
:107A1B007810122DB290038CEFF090037FA3A3E0AC
:107A2B00FEA3E4FFE4FDFC7808122DB290038DEF6A
:107A3B00F07FFF129C2FC2A07B017A03798A129AE6
:107A4B0089EF6005129D9380197D647C00129D93D4
:107A5B00EF64FE6009ED1D70011CED4C70EFED4CF9
:107A6B007005129C2BD322900386E0FCA3E0FDED66
:107A7B001DAE0470011C4E6005129D9380F1E4FC59
:107A8B00FDD3900389E09D900388E09C401D129DDF
:107A9B0093900383E0FBA3E0FAA3E0F98D828C8340
:107AAB00EF122B5C0DBD00010C80D6900386E0FE1F
:107ABB00A3E0FFC3E49FFF74029EFEA3E0FCA3E0E0
:107ACB00FDC3EF9DFDEE9CFCED1DAE0470011C4E45
:0B7ADB006005129D9380F1129C25C3F2
:017AE600227D
:1099260090031EEBF0A3EAF0A3E9F0900324E0FF16
:1099360014F0EF6043900321E0FBA3E0FAA3E0F903
:10994600122B04FE90031EE0FBA3E0FAA3E0F9123B
:109956002B04FDC39E50037F0122EDD39E40037F5F
:10996600022290031FE475F001122BE5900322E416
:0B99760075F001122BE580B37F00228A
:1094EF00900370E075F020A4FF90036AE0FBA3E007
:1094FF00FAA3E02FF9EA35F0FA900376EBF0A3EA3E
:10950F00F0A3E9F0A3740BF0900359E0FBA3E0FA8A
:03951F00A3E0F9CD
:0B952200900373EBF0A3EAF0A3E9F064
:10952D00E4FF900379E0FEEFC39E502B900376E0AD
:10953D00FBA3E0FAA3E0F98F82758300122B1DFEC9
:10954D00900373E0FBA3E0FAA3E0F98F827583002B
:07955D00EE122B5C0F80CB26
:0195640022E4
:108B3100FBAA06E4F9F8E0FCA3E0FDA3E0FEA3E054
:108B4100FF122D01AC00AD01AE02AF03E47B04FACC
:108B5100F9F8122C76900363E0FBA3E0FAA3E02F6F
:098B6100F9EA3EFAEB3DFB7D044C
:0E8B6A0090038FEBF0A3EAF0A3E9F0A3EDF087
:108B7800E0C313900395F0E4900394F0900395E01C
:108B8800FF900394E0FEC39F505A90038FE0FBA32D
:108B9800E0FAA3E0F98E82758300122B1D900393EF
:108BA800F0EEFF900392E0C39FFFE49400FE74FF91
:108BB8002FF58274FF3EF583122B1DFD900394E080
:108BC800F582758300ED122B5C900393E0FD74FF32
:108BD8002FF58274FF3EF583ED122B5C900394E031
:048BE80004F080987D
:018BEC002266
:109E1D0075F020A4FFE0FBA3E0FAA3E02FF9EA35EB
:029E2D00F0FA49
:109E2F00122B04FE7002FF22EEB4E5037F05229091
:109E3F00000B122B1DFEB40F037F0322EE30E30342
:109E4F007F042290000B122B1D30E4037F02227F30
:029E5F000122DE
:0B9FB500900316EBF0A3EAF0A3E9F024
:109FC000E4FF900316E0FBA3E0FAA3E0F98F8275AB
:109FD0008300122B1D20E703B47E037F01220FEFC5
:059FE000B408DF7F0062
:019FE5002259
:0571A100900316EFF061
:1071A600A37401F0A37400F0A37443F0F9A374016F
:1071B600F0A37400F0A3E9F0EFD3940440037F0139
:1071C600227B017A0079437F007E007D007C0012DD
:1071D60082AD50037F0122900043E0B4EB0EA3E0A2
:1071E600B45809A3E0649070030272F69003177412
:1071F60001F0A37402F0A37401F0900316E0603E60
:1072060075F010A4FFA3E0FBA3E0FAA3E02FF9EAD0
:1072160035F0FA90FFF0122B1DB4801F90FFF41288
:107226002B1DFF640B6009EF640C6004EFB40F0BB9
:10723600900316E01490031DF080697F0122E4900C
:10724600031DF090031DE0FFC39404504D900317F7
:10725600E0FBA3E0FAA3E0F975F010EFA4F5828550
:10726600F083122B1DB4802A90031DE075F010A444
:10727600FF900317A3A3E02FF9EA35F0FA90000474
:10728600122B1DFF640B6012EF640C600DEF640F90
:10729600600890031DE004F080A990031DE0B4048B
:1072A600037F012290031DE075F010A4FF900317E1
:1072B600E0FBA3E0FAA3E02FF9EA35F0FAE92408A7
:1072C600F9E43AFA7D04128B6A90031DE075F0101A
:1072D600A4FF900317E0FBA3E0FAA3E02FF9EA3539
:1072E600F0FA900008122DF81282A7500F7F0122A3
:1072F600900316E0D3940140037F012290031AE025
:10730600FBA3E0FAA3E0F9122B04B4EB1FE9245225
:10731600F9E43AFA90032174FFF0A37400F0A37421
:1073260006F0A37405F0129926EF60037F01229000
:10733600025B7420F090031AE0FBA3E0FAA3E024BA
:107346000BF9E43AFA7D02128B6A90031AE0FBA36A
:10735600E0FAA3E0F990000B122C11FF90025CE515
:10736600F0F0A3EFF090000D122B1D90024BF0E908
:10737600241CF9E43AFA7D04128B6A90031AE0FBA6
:10738600A3E0FAA3E0F990001C122DF89002651212
:107396002EEBE9240EF9E43AFA7D02128B6A900389
:1073A6001AE0FBA3E0FAA3E0F990000E122C11FFFD
:1073B600900262E5F0F0A3EFF0E92424F9E43AFA4A
:1073C6007D04128B6A90031AE0FBA3E0FAA3E0F9AE
:1073D600900024122DF890025E122EEB90001012EF
:1073E6002B1D900264F0E9242CF9E43AFA7D04128C
:1073F6008B6A90031AE0FBA3E0FAA3E0F990002C55
:10740600122DF8900250122EEBE92420F9E43AFAF4
:107416007D04128B6A90031AE0FBA3E0FAA3E0F95D
:0E742600900020122DF8900247122EEB7F00EE
:017434002235
:06667A0090037F122EEBDD
:106680009003877401F0A37400F0A37443F0E4FF57
:10669000FEFDFC900383E0F8A3E0F9A3E0FAA3E099
:1066A000FBC3122DA17003026A4990025CE0FEA3B5
:1066B000E07802CEC313CE13D8F9FFE4FCFD9002BC
:1066C0005EE0F8A3E0F9A3E0FAA3E0FB122C7690D9
:1066D000037FE0F8A3E0F9A3E0FAA3E0FBC3122DE7
:1066E000A14003026853900262E0FEA3E0FFE4FCD5
:1066F000FD900265E0F8A3E0F9A3E0FAA3E02FFF24
:10670000EA3EFEED39FDEC38FC90038A122EEB9048
:10671000038E7464F090025CE0FEA3E07802CEC3C6
:1067200013CE13D8F9128278501290038EE07003C2
:106730000269E990038EE014F0E070D9900383744D
:10674000FF122EB8EC4D4E4F7003026A4990025C66
:10675000E0FEA3E07802CEC313CE13D8F9FBAA065D
:10676000E4F9F890037FE0FCA3E0FDA3E0FEA3E0E2
:10677000FF122D01AC00AD01AE02AF03E47B04FAC1
:10678000F9F8122C76900387E0FBA3E0FAA3E0F976
:106790008F828E83122DF8E4FBFAF9F8C3122DA133
:1067A000700302685390025CE0FEA3E07802CEC35F
:1067B00013CE13D8F9FBAA06E4F9F890037FE0FCA6
:1067C000A3E0FDA3E0FEA3E0FF122D01AC00AD01AC
:1067D000AE02AF03E47B04FAF9F8122C769003873B
:1067E000E0FBA3E0FAA3E0F98F828E83122DF87408
:1067F000FF7B0FFAF9F8C3122DA1605790025CE0FD
:10680000FEA3E07802CEC313CE13D8F9FBAA06E4A8
:10681000F9F890037FE0FCA3E0FDA3E0FEA3E0FF16
:10682000122D01AC00AD01AE02AF03E47B04FAF916
:10683000F8122C76900387E0FBA3E0FAA3E0F98F2F
:10684000828E83122DF874FFFBFAF978F7C3122DAC
:10685000A17004E40269E990025CE0FEA3E0780222
:10686000CEC313CE13D8F9FBAA06E4F9F890037F40
:10687000E0FCA3E0FDA3E0FEA3E0FF122D01AC00CD
:10688000AD01AE02AF03E47B04FAF9F8122C769066
:106890000387128B59E4FFFEFDFC900383E0F8A30D
:1068A000E0F9A3E0FAA3E0FBD3122DA150030269A3
:1068B000F690025CE0FEA3E07802CEC313CE13D8BC
:1068C000F9FBAA06E4F9F890037FE0FCA3E0FDA33E
:1068D000E0FEA3E0FF122D01AC00AD01AE02AF035C
:1068E000E47B04FAF9F8122C76900387E0FBA3E02E
:1068F000FAA3E0F98F828E83122DF8C004C005C080
:1069000006C00790025CE0FEA3E07802CEC313CE7F
:1069100013D8F9FBAA06E4F9F8D007D006D005D0C1
:1069200004122D01C004C005C006C00790025CE03F
:10693000FEA3E07802CEC313CE13D8F9FBAA06E477
:10694000F9F890037FE0FCA3E0FDA3E0FEA3E0FFE5
:10695000122D01A804A905AA06AB07D007D006D0BE
:1069600005D004C3122DA170030269F690025CE009
:10697000FEA3E07802CEC313CE13D8F9FBAA06E437
:10698000F9F890037FE0FCA3E0FDA3E0FEA3E0FFA5
:10699000122D01AC00AD01AE02AF03E47B04FAF9A5
:1069A000F8122C76900387E0FBA3E0FAA3E0F98FBE
:1069B000828E83122DF890037F122EEB90038E743B
:1069C00064F090038EE0700302673C90025CE0FE8E
:1069D000A3E07802CEC313CE13D8F9128278400315
:1069E00002673C90038EE07005FFFEFDFC229003E1
:1069F0008EE014F080CC90025CE0FEA3E07802CE42
:106A0000C313CE13D8F9FBAA06E4F9F890037FE08C
:106A1000FCA3E0FDA3E0FEA3E0FF122D01AC00AD5E
:106A200001AE02AF03E47B04FAF9F8122C7690036E
:106A300087E0FBA3E0FAA3E0F98F828E83122DF8A2
:106A400090037F122EEB02673C90037FE0FCA3E0F3
:076A5000FDA3E0FEA3E0FF3F
:016A5700221C
:0654FC00900373122EEB79
:10550200E4FFFEFDFC900377E0F8A3E0F9A3E0FAE4
:10551200A3E0FBC3122DA1700F900373E0FCA3E084
:10552200FDA3E0FEA3E0FF22900264E0FFE4FCFDA5
:10553200FE90025EE0F8A3E0F9A3E0FAA3E0FB121A
:105542002C76C004C005C006AB07900262E0FEA341
:10555200E0FFE4FCFD900265E0F8A3E0F9A3E0FAC5
:10556200A3E02FFFEA3EFEED39FDEC38FCD002D07D
:1055720001D000EB2FFFEA3EFEE93DFDE83CFC9046
:105582000373E0F8A3E0F9A3E0FAA3E0FBC3122D52
:10559200A14039900247E0FCA3E0FDA3E0FEA3E0B6
:1055A200FF900265E0F8A3E0F9A3E0FAA3E02FFF81
:1055B200EA3EFEE93DFDE83CFC900373E0F8A3E01F
:1055C200F9A3E0FAA3E0C3122DA14004E402586754
:1055D200900265E0F8A3E0F9A3E0FAA3E0FB9003F0
:1055E20073E0FCA3E0FDA3E0FEA3E0C39BFFEE9A01
:1055F200FEED99FDEC98FCC006C007900262E0FE49
:10560200A3E0FBAA06D007D006C3EF9BFFEE9AFEEB
:10561200ED9400FDEC9400FCC004C005C006C00778
:10562200A3E0FFE4FCFDFE90025EE0F8A3E0F9A334
:10563200E0FAA3E0FB122C76A804A905AA06AB07A0
:10564200D007D006D005D004C3EF9BFFEE9AFEED43
:1056520099FDEC98FCC00790024BE0FBE4FAF9F8E4
:10566200D007122D01AC00AD01AE02AF039003775B
:10567200E0F8A3E0F9A3E0FAA3E02FFBEA3EFAE99F
:105682003DF9E83CF890024BE0FFE4FCFDFEC3125A
:105692002DA15027900377E0FCA3E0FDA3E0FEA339
:1056A200E0FF900373E0F8A3E0F9A3E0FAA3E02F90
:1056B200FFEA3EFEE93DFDE83CFC22900265E0F88F
:1056C200A3E0F9A3E0FAA3E0FB900373E0FCA3E0FC
:1056D200FDA3E0FEA3E0C39BFFEE9AFEED99FDEC75
:1056E20098FCC006C007900262E0FEA3E0FBAA0697
:1056F200D007D006C3EF9BFFEE9AFEED9400FDECBF
:105702009400FCC004C005C006C007A3E0FFE4FC8F
:10571200FDFE90025EE0F8A3E0F9A3E0FAA3E0FB4D
:10572200122C76A804A905AA06AB07D007D006D08A
:1057320005D004C3EF9BFFEE9AFEED99FDEC98FCB9
:10574200C00790024BE0FBE4FAF9F8D007122D01F2
:10575200900250E0F8A3E0F9A3E0FAA3E02FFFEAF9
:105762003EFEE93DFDE83CFCC004C005C006C007A2
:10577200900265E0F8A3E0F9A3E0FAA3E0FB90034E
:1057820073E0FCA3E0FDA3E0FEA3E0C39BFFEE9A5F
:10579200FEED99FDEC98FCC006C007900262E0FEA7
:1057A200A3E0FBAA06D007D006C3EF9BFFEE9AFE4A
:1057B200ED9400FDEC9400FCC004C005C006C007D7
:1057C200A3E0FFE4FCFDFE90025EE0F8A3E0F9A393
:1057D200E0FAA3E0FB122C76A804A905AA06AB07FF
:1057E200D007D006D005D004C3EF9BFFEE9AFEEDA2
:1057F20099FDEC98FCC00790024BE0FBE4FAF9F843
:10580200D007122D01AC00AD01AE02AF03900377B9
:10581200E0F8A3E0F9A3E0FAA3E02FFFEA3EFEE9F5
:105822003DFDE83CFCC00790024BE0FBE4FAF9F8CE
:10583200D007122D01900383122EEBD007D006D091
:1058420005D00412667A90037B122EEBE4FFFEFD74
:10585200FC90037BE0F8A3E0F9A3E0FAA3E0FBC32A
:10586200122DA17005FFFEFDFC22900264E0FFE410
:10587200FCFDFE90025EE0F8A3E0F9A3E0FAA3E0EB
:10588200FB122C76C004C005C006AB07900262E092
:10589200FEA3E0FFE4FCFD900265E0F8A3E0F9A3BB
:1058A200E0FAA3E02FFFEA3EFEED39FDEC38FCD032
:1058B20002D001D000EB2FFFEA3EFEE93DFDE83CBD
:1058C200FCC004C005C006C007900250E0F8A3E087
:1058D200F9A3E0FAA3E0FB90037BE0FCA3E0FDA3C5
:1058E200E0FEA3E0C39BFBEE9AFAED99F9EC98F87F
:1058F20090024BE0FFE4FCFDFE122C76D003D002B6
:10590200D001D000EF2BFFEE3AFEED39FDEC38FC72
:10591200C004C005C006C007900265E0F8A3E0F924
:10592200A3E0FAA3E0FB900373E0FCA3E0FDA3E095
:10593200FEA3E0C39BFFEE9AFEED99FDEC98FCC03E
:1059420006C007900262E0FEA3E0FBAA06D007D0E1
:1059520006C3EF9BFFEE9AFEED9400FDEC9400FC73
:10596200C004C005C006C007A3E0FFE4FCFDFE9032
:10597200025EE0F8A3E0F9A3E0FAA3E0FB122C76C2
:10598200A804A905AA06AB07D007D006D005D00403
:10599200C3EF9BFFEE9AFEED99FDEC98FC90037726
:1059A200E0F8A3E0F9A3E0FAA3E02FFFEA3EFEE964
:1059B2003DFDE83CFCC00790024BE0FBE4FAF9F83D
:1059C200D007122D01AC00AD01AE02AF03D003D05F
:1059D20002D001D000EF2BFFEE3AFEED39FDEC389C
:0159E200FCC8
:0159E30022A1
:0B9D0800900373EBF0A3EAF0A3E9F076
:109D1300E4FF900373E0FBA3E0FAA3E0F98F8275FD
:109D23008300122B1DFE643F6019900376E0FBA3B2
:109D3300E0FAA3E0F98F82758300122B1D6E600396
:0A9D43007F00220FEFB40BCA7F016E
:019D4D0022F3
:046294007F017E0008
:08629800900373EEF0A3EFF098
:1062A000900262E0FEA3E0FFE4FCFD900265E0F8EE
:1062B000A3E0F9A3E0FAA3E02FFFEA3EFEED39FDEB
:1062C000EC38FC900379122EEB90037D7401F0A35F
:1062D0007400F0A37443F090025CE0FEA3E0780247
:1062E000CEC313CE13D8F9FF900373E0FCA3E0FDF7
:1062F000D39FEC9E5004ED4C700302662D900380FA
:10630000122EF700000000900375E4F0A37464F00F
:10631000900379E0FCA3E0FDA3E0FEA3E0FF12827E
:10632000A75015900376E024FFF0900375E034FF4A
:10633000F0E07002A3E070D8900375E07002A3E073
:10634000700302662EE4900375F0A3F090025CE007
:10635000FEA3E07802CEC313CE13D8F9FF900373E7
:10636000E0FCA3E0FDC3EF9DFFEE9CCF2401CF3402
:1063700000FEA3E0FCA3E0FDC39FEC9E400302658A
:10638000BFEDAE047802C333CE33CED8F9FF90030D
:106390007DE0FBA3E0FAA3E0F98F828E83122DF853
:1063A000E4FBFAF9F8C3122DA160030265AE900375
:1063B00076E02401FE900375E03400900377F0A3AB
:1063C000CEF0900373E0FEA3E0FF900376E02FFF92
:1063D000900375E03EFE900377E0FCA3E0FDC39FD1
:1063E000EC9E503AEDAE047802C333CE33CED8F9EA
:1063F000FF90037DE0FBA3E0FAA3E0F98F828E8398
:10640000122DF8E4FBFAF9F8C3122DA170109003D5
:1064100078E004F070AC900377E004F080A490037F
:1064200073E0FEA3E0FFA3E0FCA3E0FD2FFFEC3E42
:10643000FEA3E06E7003A3E06F600302659A900311
:1064400077ECF0A3EDF0900373E0FEA3E0FF900380
:1064500076E02FFF900375E03ECF24FFCF34FFFEA0
:10646000C3900378E09F900377E09E40030264FBB3
:10647000E0FEA3E0FFE4FCFD900380E0F8A3E0F978
:10648000A3E0FAA3E02FFFEA3EFEED39FDEC38FC75
:10649000EF2401FFE43EFEE43DFDE43CFCC004C00B
:1064A00005C006C007900377E0FEA3E07802C3337F
:1064B000CE33CED8F9FF90037DE0FBA3E0FAA3E052
:1064C000F98F828E83D007D006D005D004122E42D9
:1064D000900377E0FEA3E07802C333CE33CED8F941
:1064E00029F9EA3EFA7D04128B6A900378E004F001
:1064F0007006900377E004F0026446900377E0FEB4
:10650000A3E07802C333CE33CED8F9FF90037DE009
:10651000FBA3E0FAA3E0F98F828E83122F28FFFFFE
:10652000FF0F900380E0F8A3E0F9A3E0FAA3E0FBFB
:10653000900375E0FEA3E0FFE4FCFDEB2FFFEA3ED5
:10654000FEED39FDEC38FC900380122EEB900375C4
:10655000E4F0A37464F0900379E0FCA3E0FDA3E011
:10656000FEA3E0FF1281685015900376E024FFF04F
:10657000900375E034FFF0E07002A3E070D8900360
:1065800075E07002A3E0700302662E900380E0FCC9
:10659000A3E0FDA3E0FEA3E0FF22900378E0240146
:1065A000FE900377E03400900375F0A3CEF09003E3
:1065B00076E004F07006900375E004F002634C90FE
:1065C0000379E0FCA3E0FDA3E0FEA3E02401FFE4E7
:1065D0003EFEE43DFDE43CFC900379122EEB90027C
:1065E00062E0FEA3E0FFE4FCFD900265E0F8A3E0BA
:1065F000F9A3E0FAA3E02FFFEA3EFEED39FDEC3807
:10660000FC90025EE0F8A3E0F9A3E0FAA3E02FFF1C
:10661000EA3EFEE93DFDE83CFC900379E0F8A3E0AA
:10662000F9A3E0FAA3E0FBC3122DA14006E4FFFEAC
:10663000FDFC22900380E0F8A3E0F9A3E0FAA3E0D8
:10664000FBC000C001C002C00390025CE0FEA3E0FA
:106650007802CEC313CE13D8F9FFE4FCFDD003D0EB
:1066600002D001D000EB2FFFEA3EFEED39FDEC3801
:0A667000FC900380122EEB0263077A
:066E0D00900373122EEB4E
:106E13009003787401F0A37400F0A37443F090031B
:106E2300777464F090025CE0FEA3E07802CEC313B3
:106E3300CE13D8F9FBAA06E4F9F8900373E0FCA398
:106E4300E0FDA3E0FEA3E0FF122D01C004C005C0D6
:106E530006AB07900262E0FEA3E0FFE4FCFD9002B4
:106E630065E0F8A3E0F9A3E0FAA3E02FFFEA3EFE12
:106E7300ED39FDEC38FCD002D001D000EB12829C3E
:106E83005009900377E014F0E07099900377E07075
:106E9300037F012290025CE0FEA3E07802CEC313DD
:106EA300CE13D8F9FBAA06E4F9F8900373E0FCA328
:106EB300E0FDA3E0FEA3E0FF122D01AC00AD01AEA7
:106EC30002AF03E47B04FAF9F8122C76900378E01E
:106ED300FBA3E0FAA3E0F98F828E83122DF89003CF
:106EE3007B122EEB90037BE0FCA3E0FDA3E0FEA36B
:106EF300E0FF122FCB6FD4000000006FD4F7FFFF29
:106F0300FF6F0EFFFFFF0F00006FD790025CE0FEE4
:106F1300A3E07802CEC313CE13D8F9FBAA06E4F993
:106F2300F8900373E0FCA3E0FDA3E0FEA3E0FF12EF
:106F33002D01AC00AD01AE02AF03E47B04FAF9F816
:106F4300122C76900378E0FBA3E0FAA3E0F98F829A
:106F53008E83122F28000000009003777464F09052
:106F6300025CE0FEA3E07802CEC313CE13D8F9FB94
:106F7300AA06E4F9F8900373E0FCA3E0FDA3E0FEA6
:106F8300A3E0FF122D01C004C005C006AB079002A9
:106F930062E0FEA3E0FFE4FCFD900265E0F8A3E0FD
:106FA300F9A3E0FAA3E02FFFEA3EFEED39FDEC384A
:106FB300FCD002D001D00012815C5009900377E02D
:106FC30014F0E0709A900377E070037F01227F0052
:106FD300227F012290025CE0FEA3E07802CEC3137D
:106FE300CE13D8F9FBAA06E4F9F8900373E0FCA3E7
:106FF300E0FDA3E0FEA3E0FF122D01AC00AD01AE66
:1070030002AF03E47B04FAF9F8122C76900378E0DC
:10701300FBA3E0FAA3E0F98F828E83122F280000EE
:1070230000007B017A03797B7D04128B6A90025CFA
:10703300E0FEA3E07802CEC313CE13D8F9FBAA0671
:10704300E4F9F890037BE0FCA3E0FDA3E0FEA3E0FA
:10705300FF122D01C004C005C006C00790025CE00A
:10706300FEA3E07802CEC313CE13D8F9FBAA06E43D
:10707300F9F8900373E0FCA3E0FDA3E0FEA3E0FFB7
:10708300122D01A804A905AA06AB07D007D006D084
:1070930005D004C3122DA1700302718A9003777483
:1070A30064F090025CE0FEA3E07802CEC313CE133B
:1070B300D8F9FBAA06E4F9F8900373E0FCA3E0FD1A
:1070C300A3E0FEA3E0FF122D01C004C005C006AB80
:1070D30007900262E0FEA3E0FFE4FCFD900265E09E
:1070E300F8A3E0F9A3E0FAA3E02FFFEA3EFEED39AF
:1070F300FDEC38FCD002D001D00012815C50099025
:107103000377E014F0E0709A900377E070037F0157
:10711300229003777464F090025CE0FEA3E07802AF
:10712300CEC313CE13D8F9FBAA06E4F9F890037B78
:10713300E0FCA3E0FDA3E0FEA3E0FF122D01C004E9
:10714300C005C006AB07900262E0FEA3E0FFE4FCCB
:10715300FD900265E0F8A3E0F9A3E0FAA3E02FFFB6
:10716300EA3EFEED39FDEC38FCD002D001D000EB55
:1071730012829C5009900377E014F0E07099900319
:1071830077E070037F012290037BE0FCA3E0FDA383
:0E719300E0FEA3E0FF900373122EEB026E9756
:1030E600900274E0FCA3E0FD9003597401F0A37410
:0C30F60002F0A374E6F07BFF7A01795B26
:10310200900354EBF0A3EAF0A3E9F0A3ECF0A3EDF3
:01311200F0CC
:10311300900368ECF0A3EDF0A37401F0A37400F046
:10312300A37443F0F9A37401F0A37400F0A3E9F0CE
:10313300900264E0FFE4FCFDFE90025EE0F8A3E091
:10314300F9A3E0FAA3E0FB122C76C004C005C00685
:10315300AB07900262E0FEA3E0FFE4FCFD90026592
:10316300E0F8A3E0F9A3E0FAA3E02FFFEA3EFEEDC7
:1031730039FDEC38FCD002D001D000EB2FFFEA3E42
:10318300FEE93DFDE83CFC90035C122EEB900371DD
:10319300E4F0A37464F090035CE0FCA3E0FDA3E01F
:1031A300FEA3E0FF1282A75015900372E024FFF004
:1031B300900371E034FFF0E07002A3E070D8900355
:1031C30071E07002A3E070037F0122E4900370F0CA
:1031D30090025CE0FEA3E07805CEC313CE13D8F9CA
:1031E300FF900370E0FDC39FE49E40030236A8ED09
:1031F30090036A129E1DEF14700302341A046003D5
:1032030002369FD3900358E09400900357E0940054
:1032130040037F0122126294900360122EEBE4FFBD
:10322300FEFDFC900360E0F8A3E0F9A3E0FAA3E05D
:10323300FBC3122DA170037F0122900371E4F0A35D
:103243007464F090035CE0FCA3E0FDA3E0FEA3E064
:10325300FF1282A75015900372E024FFF0900371D0
:10326300E034FFF0E07002A3E070D8900371E070E7
:1032730002A3E070037F0122900370E075F020A4A5
:10328300FF90036AE0FBA3E0FAA3E02FF9EA35F02D
:10329300FAC002C001900354E0F9A3E0FAA3E0905E
:1032A3000376C9F0A3EAF0A3E9F0A3740BF0D0010D
:1032B300D002129522900370E075F020A4FF9003D2
:1032C3006AE0FBA3E0FAA3E02FF9EA35F0FA9000F5
:1032D3000B7420122B5C90000CE4122B5C900360A7
:1032E300E0FCA3E0FDA3E0FEA3E0FF7810122DB203
:1032F300900014EE8FF0122C49E92414F9E43AFA01
:103303007D02128B6A900360A3A3E0FEA3E0FFE4B7
:10331300AD07AC06900370E075F020A4FF90036A3C
:10332300E0FBA3E0FAA3E02FF9EA35F0FA90001AE4
:10333300EC8DF0122C49E9241AF9E43AFA7D0212D1
:103343008B6A900370E075F020A4FF90036AE0FBA2
:10335300A3E0FAA3E02FF9EA35F0FA90001C122F4C
:103363002800000000900371E4F0A37464F090035C
:103373005CE0FCA3E0FDA3E0FEA3E0FF1281685044
:1033830015900372E024FFF0900371E034FFF0E046
:103393007002A3E070D8900371E07002A3E07003A1
:1033A3007F01221294EF900370E075F020A4FF9048
:1033B300036AE0FBA3E0FAA3E02FF9EA35F0FA9001
:1033C300000B122B1DFF900359E0FBA3E0FAA3E0CF
:1033D300F990000BEF122B5C90000C122F280000C9
:1033E300000090035CE0FCA3E0FDA3E0FEA3E0FF8C
:1033F300900010122E42900370E0900014122B5C88
:10340300900360E0FCA3E0FDA3E0FEA3E0FF9000D7
:1034130015122E420235C4900370E075F020A4FF0C
:1034230090036AE0FBA3E0FAA3E02FF9EA35F0FA90
:10343300900376EBF0A3EAF0A3E9F0900354E0FBEA
:10344300A3E0FAA3E0F9129D08EF700302369F9000
:103453000357E0FEA3E0FF4E601BD3EF9400EE940E
:10346300005003023682900368E07004A3E0640115
:1034730060030236821294EF900370E075F020A48B
:10348300FFAEF090036AE0FBA3E0FAA3E02FF9EAB2
:103493003EFA90000B122B1DFD900359E0FBA3E0B5
:1034A300FAA3E0F990000BED122B5C90036AE0FBAA
:1034B300A3E0FAA3E02FF9EA3EFA90001C122DF8DC
:1034C300900359E0FBA3E0FAA3E0F990000C122E5D
:1034D30042E9240CF9E43AFA7D04128B6A90035C06
:1034E300E0FCA3E0FDA3E0FEA3E0FF900359E0FBB3
:1034F300A3E0FAA3E0F9900010122E42900370E0CB
:10350300FF900014122B5CEF75F020A4FF90036A68
:10351300E0FBA3E0FAA3E02FF9EA35F0FA90001AF2
:10352300122C11FFAEF0E4FCFD900359E0FBA3E085
:10353300FAA3E0F9900015122E42E92415F9E43AB2
:10354300FA122DD87810122DC5122E28900359E0A7
:10355300FBA3E0FAA3E02415F9E43AFAC003C0029E
:10356300C001122DD8C006C007900370E075F0208B
:10357300A4FF90036AE0FBA3E0FAA3E02FF9EA3586
:10358300F0FA900014122C11AEF0FBAA06D007D06B
:1035930006EF4BFFEE4AFEECD001D002D003122E11
:1035A30028900359E0FBA3E0FAA3E02415F9E43AD9
:1035B300FA7D04128B6A900359E0FBA3E0FAA3E0BF
:1035C300F9900015122DF8900250E0F8A3E0F9A34A
:1035D300E0FAA3E0FBC3EF9BFBEE9AFAED99F9EC5B
:1035E30098F890024BE0FFE4FCFDFE122C76C00439
:1035F300C005C006C007900264E0FFE4FCFDFE9036
:10360300025EE0F8A3E0F9A3E0FAA3E0FB122C7654
:10361300C004C005C006AB07900262E0FEA3E0FF52
:10362300E4FCFD900265E0F8A3E0F9A3E0FAA3E06F
:103633002FFFEA3EFEED39FDEC38FCD002D001D07D
:1036430000EB2FFFEA3EFEE93DFDE83CFCD003D052
:1036530002D001D000EB2FFFEA3EFEE93DFDE83C3E
:10366300FC900359E0FBA3E0FAA3E0F990001912E0
:103673002E4290001D122F28000000007F0022D34D
:10368300900358E09400900357E09400400E900399
:1036930069E024FFF0900368E034FFF0900370E0EA
:1036A30004F00231D3900377122EF700000001904B
:1036B300035CE0FCA3E0FDA3E0FEA3E0FF1254FCE7
:1036C300900364122EEBE4FFFEFDFC900364E0F82C
:1036D300A3E0F9A3E0FAA3E0FBC3122DA160030268
:1036E3003B02D3900358E09400900357E0940040CA
:1036F300037F0122126294900360122EEBE4FFFE1B
:10370300FDFC900360E0F8A3E0F9A3E0FAA3E0FB7B
:10371300C3122DA170037F0122900265E0F8A3E09C
:10372300F9A3E0FAA3E0FB90035CE0FCA3E0FDA3B4
:10373300E0FEA3E0C39BFFEE9AFEED99FDEC98FC3F
:10374300C006C007900262E0FEA3E0FBAA06D00712
:10375300D006C3EF9BFFEE9AFEED9400FDEC9400C0
:10376300FCC004C005C006C007A3E0FFE4FCFDFEE7
:1037730090025EE0F8A3E0F9A3E0FAA3E0FB122CC9
:1037830076A804A905AA06AB07D007D006D005D0B2
:1037930004C3EF9BFFEE9AFEED99FDEC98FCC00786
:1037A30090024BE0FBE4FAF9F8D007122D019002E6
:1037B30050E0F8A3E0F9A3E0FAA3E02FFFEA3EFE0E
:1037C300E93DFDE83CFC900364122EEB900371E4A9
:1037D300F0A37464F090025CE0FEA3E07802CEC331
:1037E30013CE13D8F9FBAA06E4F9F890035CE0FCC6
:1037F300A3E0FDA3E0FEA3E0FF122D01C004C0057A
:10380300C006AB07900262E0FEA3E0FFE4FCFD907C
:103813000265E0F8A3E0F9A3E0FAA3E02FFFEA3E94
:10382300FEED39FDEC38FCD002D001D000EB128262
:103833009C5015900372E024FFF0900371E034FF75
:10384300F0E07002A3E0708D900371E07002A3E0DA
:1038530070037F0122900360E0FCA3E0FDA3E0FE80
:10386300A3E0FFC004C005C006C00790025CE0FEF1
:10387300A3E07802CEC313CE13D8F9FBAA06E4F96A
:10388300F8900364E0FCA3E0FDA3E0FEA3E0FF12D5
:103893002D01AC00AD01AE02AF03E47B04FAF9F8ED
:1038A300122C7690036DE0FBA3E0FAA3E0F98F827C
:1038B3008E83D007D006D005D004122E4290025C2E
:1038C300E0FEA3E07802CEC313CE13D8F9FBAA0619
:1038D300E4F9F8900364E0FCA3E0FDA3E0FEA3E0B9
:1038E300FF122D01AC00AD01AE02AF03E47B04FA7D
:1038F300F9F8122C7690036D128B59900371E4F052
:10390300A37464F090025CE0FEA3E07802CEC313DC
:10391300CE13D8F9FBAA06E4F9F8900364E0FCA3FC
:10392300E0FDA3E0FEA3E0FF122D01C004C005C02B
:1039330006AB07900262E0FEA3E0FFE4FCFD900209
:1039430065E0F8A3E0F9A3E0FAA3E02FFFEA3EFE67
:10395300ED39FDEC38FCD002D001D00012815C506F
:1039630015900372E024FFF0900371E034FFF0E060
:103973007002A3E0708E900371E07002A3E0700305
:103983007F0122900264E0FFE4FCFDFE90025EE012
:10399300F8A3E0F9A3E0FAA3E0FB122C76C004C07D
:1039A30005C006AB07900262E0FEA3E0FFE4FCFD66
:1039B300900265E0F8A3E0F9A3E0FAA3E02FFFEAA1
:1039C3003EFEED39FDEC38FCD002D001D000EB2FE8
:1039D300FFEA3EFEE93DFDE83CFCC004C005C0062D
:1039E300C007900250E0F8A3E0F9A3E0FAA3E0FBDC
:1039F300900360E0FCA3E0FDA3E0FEA3E0C39BFB18
:103A0300EE9AFAED99F9EC98F890024BE0FFE4FC9A
:103A1300FDFE122C76D003D002D001D000EF2BFF95
:103A2300EE3AFEED39FDEC38FC90035C122EEB9080
:103A33000364122EF70000000090024BE0FFE4FC49
:103A4300FDFE900364E0F8A3E0F9A3E0FAA3E0FB32
:103A5300C3122DA14003023B16E4900371F0A3F0BF
:103A630090025CE0FEA3E0FF900371E0FCA3E0FDA5
:103A7300C39FEC9E501C74432DF58274003CF58368
:103A8300E4F0900372E004F070D6900371E004F068
:103A930080CE900371E4F0A37464F0900364E0FCBF
:103AA300A3E0FDA3E0FEA3E0FF90035CE0F8A3E046
:103AB300F9A3E0FAA3E012815D5015900372E024AC
:103AC300FFF0900371E034FFF0E07002A3E070CBED
:103AD300900371E07002A3E070037F0122900364FE
:103AE300E0FCA3E0FDA3E0FEA3E02401FFE43EFE2F
:103AF300E43DFDE43CFC900364122EEB023A3C905F
:103B03000364E0FCA3E0FDA3E0FEA3E0FF90035CFD
:103B1300122EEB900371E4F0A37464F090035CE065
:103B2300FCA3E0FDA3E0FEA3E0FF1282A7501590E3
:103B33000372E024FFF0900371E034FFF0E07002C1
:103B4300A3E070D8900371E07002A3E06003023138
:033B5300CE7F0121
:013B5600224C
:0B743500900354EBF0A3EAF0A3E9F091
:10744000A37401F0A37400F0A37443F0A37464F078
:10745000900354E0FBA3E0FAA3E0F9900010122D92
:10746000F81282A7500990035AE014F0E070E190FE
:10747000035AE070037F0122900354E0FBA3E0FA7B
:10748000A3E0F9900014122B1D75F020A4FF9003C7
:1074900057E0FBA3E0FAA3E02FF9EA35F0FAC002C7
:1074A000C001900354E0F9A3E0FAA3E0900376C989
:1074B000F0A3EAF0A3E9F0A3740BF0D001D002121C
:1074C0009522900354E0FBA3E0FAA3E0F990000BAF
:1074D000122B1DFD900014122B1D75F020A4FF909F
:1074E0000357E0FBA3E0FAA3E02FF9EA35F0FA90A6
:1074F000000BED122B5C900354E0FBA3E0FAA3E039
:10750000F9900015122DF87810122DB2AD07AC06C7
:10751000900014122B1D75F020A4FF900357E0FB80
:10752000A3E0FAA3E02FF9EA35F0FA900014EC8D0D
:10753000F0122C49900354E0FBA3E0FAA3E0F99089
:107540000015122DF8E4AD07AC06900014122B1DA7
:1075500075F020A4FF900357E0FBA3E0FAA3E02F0F
:10756000F9EA35F0FA90001AEC8DF0122C499003EC
:1075700054E0FBA3E0FAA3E0F9900014122B1D7570
:10758000F020A4FF900357E0FBA3E0FAA3E02FF95B
:10759000EA35F0FAE92414F9E43AFA7D02128B6A2A
:1075A000900354E0FBA3E0FAA3E0F9900014122B3F
:1075B0001D75F020A4FF900357E0FBA3E0FAA3E0C1
:1075C0002FF9EA35F0FAE9241AF9E43AFA7D0212C1
:1075D0008B6A900354E0FBA3E0FAA3E0F990000C5F
:1075E000122DF8C006C007900354A3A390001412F4
:1075F0002B1D75F020A4FF900357E0FBA3E0FAA336
:10760000E02FF9EA35F0FA90001CD007D006122ED0
:1076100042900354E0FBA3E0FAA3E0F990001412B7
:107620002B1D75F020A4FF900357E0FBA3E0FAA305
:10763000E02FF9EA35F0FAE9241CF9E43AFA7D047E
:10764000128B6A90035A7464F0900354E0FBA3E039
:10765000FAA3E0F9900010122DF8128168500990F9
:10766000035AE014F0E070E190035AE070037F01E8
:03767000227F0076
:0176730022F4
:0B8A65009003BFEBF0A3EAF0A3E9F0E0
:108A7000A37401F0A37400F0A37443F0A37464F032
:108A80009003BFE0FBA3E0FAA3E0F9900010122DE1
:108A9000F81282A750099003C5E014F0E070E1904D
:108AA00003C5E070037F01229003BFE0FBA3E0FA5F
:108AB000A3E0F974E5122B4A9003C2E0FBA3E0FAAD
:108AC000A3E0F9C003C002C0019003BFE0FBA3E034
:108AD000FAA3E0F9900014122B1D75F020A4F58282
:108AE00085F083D001D002D00374E5122B5C900393
:108AF000C57464F09003BFE0FBA3E0FAA3E0F99033
:108B00000010122DF812816850099003C5E014F08E
:108B1000E070E19003C5E070037F01229003BFE0A5
:108B2000FBA3E0FAA3E0F9900015122DF8126E0DE8
:018B30002222
:10767400900354122EEB900358EBF0A3EAF0A3E925
:01768400F015
:1076850090025CE0FEA3E0FBAA06E4F9F89003543F
:10769500E0FCA3E0FDA3E0FEA3E0FF122D01A8049A
:1076A500A905AA06AB0790025CE0FEA3E0FFE4FC97
:1076B500FD122C76900354122EEB900358E0FBA399
:1076C500E0FAA3E0F9900015122DF8900250E0F8C9
:1076D500A3E0F9A3E0FAA3E0FBC3EF9BFBEE9AFA64
:1076E500ED99F9EC98F890024BE0FFE4FCFDFE12F1
:1076F5002C76C004C005C006C007900264E0FFE414
:10770500FCFDFE90025EE0F8A3E0F9A3E0FAA3E039
:10771500FB122C76C004C005C006AB07900262E0E0
:10772500FEA3E0FFE4FCFD900265E0F8A3E0F9A309
:10773500E0FAA3E02FFFEA3EFEED39FDEC38FCD080
:1077450002D001D000EB2FFFEA3EFEE93DFDE83C0B
:10775500FCD003D002D001D000EB2FFFEA3EFEE9BA
:107765003DFDE83CFCC004C005C006C00790025CB6
:10777500E0FEA3E0FBAA06E4F9F8900354E0FCA3BD
:10778500E0FDA3E0FEA3E0FF122D01900377122E8A
:10779500EBD007D006D005D0041254FC90035B1241
:1077A5002EEBE4FFFEFDFC90035BE0F8A3E0F9A3FC
:1077B500E0FAA3E0FBC3122DA170037F0122900321
:1077C5005BE0FCA3E0FDA3E0FEA3E0FF900358E02F
:1077D500FBA3E0FAA3E0F9900019122E429003549E
:1077E500E0FCA3E0FDA3E0FEA3E0FF90001D122E48
:0377F500427F00D0
:0177F800226E
:0B85B800900316EBF0A3EAF0A3E9F03B
:1085C300900019122DF8C004C005C006C00790031F
:1085D30077122EF700000001D007D006D005D00493
:1085E3001254FC900319122EEB90031D7464F09047
:1085F3000316E0FBA3E0FAA3E0F9900019122DF8AB
:108603001282A7500990031DE014F0E070E190037B
:108613001DE070037F0122900316E0FBA3E0FAA3A1
:10862300E0F990001D122E8690025CE0FEA3E0FFAD
:10863300EF2BFFEE3AFEE439FDE438FC900316E03D
:10864300FBA3E0FAA3E0F990000C122E86D3122DBF
:10865300A150037F0222900319E0FCA3E0FDA3E0F5
:10866300FEA3E0FFEC4D4E4F605B900316E0FBA3CF
:10867300E0FAA3E0241DF9E43AFAC003C002C00102
:10868300122E6690025CE0FEA3E0FFE4FCFDEB2FFC
:10869300FFEA3EFEED39FDEC38FCD001D002D003F9
:1086A300122E28900319E0FCA3E0FDA3E0FEA3E053
:1086B300FF900316E0FBA3E0FAA3E0F99000191280
:0786C3002E427F00227F031D
:0186CA00228D
:065E67007B017A037921A2
:0B5E6D00900354EBF0A3EAF0A3E9F06F
:105E78009003607401F0A37400F0A37443F09003DE
:105E8800577464F0900354E0FBA3E0FAA3E0F990A0
:105E98000019122DF81281685009900357E014F088
:105EA800E070E1900357E070037F0122900354E013
:105EB800FBA3E0FAA3E0F9900019122DF8C004C082
